{
  "contractName": "YourToken",
  "abi": [
    {
      "inputs": [],
      "stateMutability": "nonpayable",
      "type": "constructor"
    },
    {
      "anonymous": false,
      "inputs": [
        {
          "indexed": true,
          "internalType": "address",
          "name": "owner",
          "type": "address"
        },
        {
          "indexed": true,
          "internalType": "address",
          "name": "spender",
          "type": "address"
        },
        {
          "indexed": false,
          "internalType": "uint256",
          "name": "value",
          "type": "uint256"
        }
      ],
      "name": "Approval",
      "type": "event"
    },
    {
      "anonymous": false,
      "inputs": [
        {
          "indexed": true,
          "internalType": "address",
          "name": "to",
          "type": "address"
        },
        {
          "indexed": false,
          "internalType": "uint256",
          "name": "value",
          "type": "uint256"
        }
      ],
      "name": "TokenMinted",
      "type": "event"
    },
    {
      "anonymous": false,
      "inputs": [
        {
          "indexed": true,
          "internalType": "address",
          "name": "from",
          "type": "address"
        },
        {
          "indexed": true,
          "internalType": "address",
          "name": "to",
          "type": "address"
        },
        {
          "indexed": false,
          "internalType": "uint256",
          "name": "value",
          "type": "uint256"
        }
      ],
      "name": "TokenSold",
      "type": "event"
    },
    {
      "anonymous": false,
      "inputs": [
        {
          "indexed": true,
          "internalType": "address",
          "name": "from",
          "type": "address"
        },
        {
          "indexed": false,
          "internalType": "uint256",
          "name": "value",
          "type": "uint256"
        }
      ],
      "name": "TokensBurned",
      "type": "event"
    },
    {
      "anonymous": false,
      "inputs": [
        {
          "indexed": true,
          "internalType": "address",
          "name": "from",
          "type": "address"
        },
        {
          "indexed": true,
          "internalType": "address",
          "name": "to",
          "type": "address"
        },
        {
          "indexed": false,
          "internalType": "uint256",
          "name": "value",
          "type": "uint256"
        }
      ],
      "name": "Transfer",
      "type": "event"
    },
    {
      "inputs": [
        {
          "internalType": "address",
          "name": "",
          "type": "address"
        }
      ],
      "name": "balances",
      "outputs": [
        {
          "internalType": "uint256",
          "name": "",
          "type": "uint256"
        }
      ],
      "stateMutability": "view",
      "type": "function"
    },
    {
      "inputs": [],
      "name": "owner",
      "outputs": [
        {
          "internalType": "address",
          "name": "",
          "type": "address"
        }
      ],
      "stateMutability": "view",
      "type": "function"
    },
    {
      "inputs": [],
      "name": "tokenPrice",
      "outputs": [
        {
          "internalType": "uint256",
          "name": "",
          "type": "uint256"
        }
      ],
      "stateMutability": "view",
      "type": "function"
    },
    {
      "inputs": [],
      "name": "totalSupply",
      "outputs": [
        {
          "internalType": "uint256",
          "name": "",
          "type": "uint256"
        }
      ],
      "stateMutability": "view",
      "type": "function"
    },
    {
      "inputs": [
        {
          "internalType": "address",
          "name": "_to",
          "type": "address"
        },
        {
          "internalType": "uint256",
          "name": "_value",
          "type": "uint256"
        }
      ],
      "name": "mintTokens",
      "outputs": [],
      "stateMutability": "nonpayable",
      "type": "function"
    },
    {
      "inputs": [
        {
          "internalType": "uint256",
          "name": "_value",
          "type": "uint256"
        }
      ],
      "name": "burnTokens",
      "outputs": [],
      "stateMutability": "nonpayable",
      "type": "function"
    },
    {
      "inputs": [
        {
          "internalType": "address",
          "name": "_to",
          "type": "address"
        },
        {
          "internalType": "uint256",
          "name": "_value",
          "type": "uint256"
        }
      ],
      "name": "sellTokens",
      "outputs": [],
      "stateMutability": "payable",
      "type": "function"
    },
    {
      "inputs": [
        {
          "internalType": "address",
          "name": "_from",
          "type": "address"
        },
        {
          "internalType": "address",
          "name": "_to",
          "type": "address"
        },
        {
          "internalType": "uint256",
          "name": "_value",
          "type": "uint256"
        }
      ],
      "name": "transferFrom",
      "outputs": [
        {
          "internalType": "bool",
          "name": "",
          "type": "bool"
        }
      ],
      "stateMutability": "nonpayable",
      "type": "function"
    }
  ],
  "bytecode": "0x608060405234801561000f575f80fd5b50335f806101000a81548173ffffffffffffffffffffffffffffffffffffffff021916908373ffffffffffffffffffffffffffffffffffffffff160217905550670de0b6b3a7640000600381905550610c5d8061006b5f395ff3fe60806040526004361061007a575f3560e01c80637ff9b5961161004d5780637ff9b596146101485780638da5cb5b14610172578063c464fe651461019c578063f0dda65c146101b85761007a565b806318160ddd1461007e57806323b872dd146100a857806327e235e3146100e45780636d1b229d14610120575b5f80fd5b348015610089575f80fd5b506100926101e0565b60405161009f91906107c3565b60405180910390f35b3480156100b3575f80fd5b506100ce60048036038101906100c99190610864565b6101e6565b6040516100db91906108ce565b60405180910390f35b3480156100ef575f80fd5b5061010a600480360381019061010591906108e7565b610257565b60405161011791906107c3565b60405180910390f35b34801561012b575f80fd5b5061014660048036038101906101419190610912565b61026c565b005b348015610153575f80fd5b5061015c6103a8565b60405161016991906107c3565b60405180910390f35b34801561017d575f80fd5b506101866103ae565b604051610193919061094c565b60405180910390f35b6101b660048036038101906101b19190610965565b6103d1565b005b3480156101c3575f80fd5b506101de60048036038101906101d99190610965565b6105f3565b005b60025481565b5f8273ffffffffffffffffffffffffffffffffffffffff168473ffffffffffffffffffffffffffffffffffffffff167fddf252ad1be2c89b69c2b068fc378daa952ba7f163c4a11628f55a4df523b3ef8460405161024491906107c3565b60405180910390a3600190509392505050565b6001602052805f5260405f205f915090505481565b8060015f3373ffffffffffffffffffffffffffffffffffffffff1673ffffffffffffffffffffffffffffffffffffffff1681526020019081526020015f205410156102ec576040517f08c379a00000000000000000000000000000000000000000000000000000000081526004016102e3906109fd565b60405180910390fd5b8060015f3373ffffffffffffffffffffffffffffffffffffffff1673ffffffffffffffffffffffffffffffffffffffff1681526020019081526020015f205f8282546103389190610a48565b925050819055508060025f8282546103509190610a48565b925050819055503373ffffffffffffffffffffffffffffffffffffffff167ffd38818f5291bf0bb3a2a48aadc06ba8757865d1dabd804585338aab3009dcb68260405161039d91906107c3565b60405180910390a250565b60035481565b5f8054906101000a900473ffffffffffffffffffffffffffffffffffffffff1681565b8060015f3373ffffffffffffffffffffffffffffffffffffffff1673ffffffffffffffffffffffffffffffffffffffff1681526020019081526020015f20541015610451576040517f08c379a0000000000000000000000000000000000000000000000000000000008152600401610448906109fd565b60405180910390fd5b6003548161045f9190610a7b565b34146104a0576040517f08c379a000000000000000000000000000000000000000000000000000000000815260040161049790610b06565b60405180910390fd5b8060015f3373ffffffffffffffffffffffffffffffffffffffff1673ffffffffffffffffffffffffffffffffffffffff1681526020019081526020015f205f8282546104ec9190610a48565b925050819055508060015f8473ffffffffffffffffffffffffffffffffffffffff1673ffffffffffffffffffffffffffffffffffffffff1681526020019081526020015f205f82825461053f9190610b24565b925050819055503373ffffffffffffffffffffffffffffffffffffffff166108fc3490811502906040515f60405180830381858888f19350505050158015610589573d5f803e3d5ffd5b508173ffffffffffffffffffffffffffffffffffffffff163373ffffffffffffffffffffffffffffffffffffffff167fd4cffd6979677853b45a7a17f455188a434e975ba474c5a2613c94beacea537a836040516105e791906107c3565b60405180910390a35050565b5f8054906101000a900473ffffffffffffffffffffffffffffffffffffffff1673ffffffffffffffffffffffffffffffffffffffff163373ffffffffffffffffffffffffffffffffffffffff1614610680576040517f08c379a000000000000000000000000000000000000000000000000000000000815260040161067790610ba1565b60405180910390fd5b5f73ffffffffffffffffffffffffffffffffffffffff168273ffffffffffffffffffffffffffffffffffffffff16036106ee576040517f08c379a00000000000000000000000000000000000000000000000000000000081526004016106e590610c09565b60405180910390fd5b8060015f8473ffffffffffffffffffffffffffffffffffffffff1673ffffffffffffffffffffffffffffffffffffffff1681526020019081526020015f205f82825461073a9190610b24565b925050819055508060025f8282546107529190610b24565b925050819055508173ffffffffffffffffffffffffffffffffffffffff167fb9144c96c86541f6fa89c9f2f02495cccf4b08cd6643e26d34ee00aa586558a88260405161079f91906107c3565b60405180910390a25050565b5f819050919050565b6107bd816107ab565b82525050565b5f6020820190506107d65f8301846107b4565b92915050565b5f80fd5b5f73ffffffffffffffffffffffffffffffffffffffff82169050919050565b5f610809826107e0565b9050919050565b610819816107ff565b8114610823575f80fd5b50565b5f8135905061083481610810565b92915050565b610843816107ab565b811461084d575f80fd5b50565b5f8135905061085e8161083a565b92915050565b5f805f6060848603121561087b5761087a6107dc565b5b5f61088886828701610826565b935050602061089986828701610826565b92505060406108aa86828701610850565b9150509250925092565b5f8115159050919050565b6108c8816108b4565b82525050565b5f6020820190506108e15f8301846108bf565b92915050565b5f602082840312156108fc576108fb6107dc565b5b5f61090984828501610826565b91505092915050565b5f60208284031215610927576109266107dc565b5b5f61093484828501610850565b91505092915050565b610946816107ff565b82525050565b5f60208201905061095f5f83018461093d565b92915050565b5f806040838503121561097b5761097a6107dc565b5b5f61098885828601610826565b925050602061099985828601610850565b9150509250929050565b5f82825260208201905092915050565b7f496e73756666696369656e742062616c616e63650000000000000000000000005f82015250565b5f6109e76014836109a3565b91506109f2826109b3565b602082019050919050565b5f6020820190508181035f830152610a14816109db565b9050919050565b7f4e487b71000000000000000000000000000000000000000000000000000000005f52601160045260245ffd5b5f610a52826107ab565b9150610a5d836107ab565b9250828203905081811115610a7557610a74610a1b565b5b92915050565b5f610a85826107ab565b9150610a90836107ab565b9250828202610a9e816107ab565b91508282048414831517610ab557610ab4610a1b565b5b5092915050565b7f496e636f72726563742045746865722076616c756500000000000000000000005f82015250565b5f610af06015836109a3565b9150610afb82610abc565b602082019050919050565b5f6020820190508181035f830152610b1d81610ae4565b9050919050565b5f610b2e826107ab565b9150610b39836107ab565b9250828201905080821115610b5157610b50610a1b565b5b92915050565b7f4f6e6c79206f776e65722063616e206d696e7420746f6b656e730000000000005f82015250565b5f610b8b601a836109a3565b9150610b9682610b57565b602082019050919050565b5f6020820190508181035f830152610bb881610b7f565b9050919050565b7f496e76616c696420726563697069656e742061646472657373000000000000005f82015250565b5f610bf36019836109a3565b9150610bfe82610bbf565b602082019050919050565b5f6020820190508181035f830152610c2081610be7565b905091905056fea264697066735822122052ffc0f66cfd8deea6e96690c44e9270c438d34724dbc0b61bfd9d6f0a20627364736f6c63430008180033",
  "immutableReferences": {},
  "source": "// SPDX-License-Identifier: MIT\r\npragma solidity ^0.8.0;\r\n\r\ncontract YourToken {\r\n    // Step 1: Struct Inclusion\r\n    struct TokenHolder {\r\n        address holderAddress;\r\n        uint256 balance;\r\n    }\r\n\r\n    // Step 2: Events\r\n    event Transfer(address indexed from, address indexed to, uint256 value);\r\n    event Approval(address indexed owner, address indexed spender, uint256 value);\r\n    event TokenMinted(address indexed to, uint256 value);\r\n    event TokensBurned(address indexed from, uint256 value);\r\n    event TokenSold(address indexed from, address indexed to, uint256 value);\r\n\r\n    // Step 3: Variables\r\n    address public owner;\r\n    mapping(address => uint256) public balances;\r\n    uint256 public totalSupply;\r\n    uint256 public tokenPrice;\r\n\r\n    // Step 4: Constructor\r\n    constructor() {\r\n        owner = msg.sender;\r\n        tokenPrice = 1 ether; // Set your token price here\r\n    }\r\n\r\n    // Step 5: Functions\r\n    // State-changing functions\r\n    function mintTokens(address _to, uint256 _value) external {\r\n        require(msg.sender == owner, \"Only owner can mint tokens\");\r\n        require(_to != address(0), \"Invalid recipient address\");\r\n\r\n        balances[_to] += _value;\r\n        totalSupply += _value;\r\n\r\n        emit TokenMinted(_to, _value);\r\n    }\r\n\r\n    function burnTokens(uint256 _value) external {\r\n        require(balances[msg.sender] >= _value, \"Insufficient balance\");\r\n        \r\n        balances[msg.sender] -= _value;\r\n        totalSupply -= _value;\r\n\r\n        emit TokensBurned(msg.sender, _value);\r\n    }\r\n\r\n    function sellTokens(address _to, uint256 _value) external payable {\r\n        require(balances[msg.sender] >= _value, \"Insufficient balance\");\r\n        require(msg.value == _value * tokenPrice, \"Incorrect Ether value\");\r\n\r\n        balances[msg.sender] -= _value;\r\n        balances[_to] += _value;\r\n\r\n        // Send Ether to the seller\r\n        payable(msg.sender).transfer(msg.value);\r\n\r\n        emit TokenSold(msg.sender, _to, _value);\r\n    }\r\n\r\n    // Step 6: Relevant function\r\n    function transferFrom(address _from, address _to, uint256 _value) external returns (bool) {\r\n        // Transfer logic here\r\n\r\n        emit Transfer(_from, _to, _value);\r\n        return true;\r\n    }\r\n\r\n    // Step 7: Relevance\r\n    // The functions and events included in this contract are essential for an ERC-20 token.\r\n\r\n    // Step 8: Necessity of Types and Structs\r\n    // Types and structs are created out of necessity, not just to fulfill requirements.\r\n}\r\n",
  "sourcePath": "D:\\Visual studio\\blockchain\\assignment4\\contracts\\YourToken.sol",
  "compiler": {
    "name": "solc",
    "version": "0.8.24+commit.e11b9ed9.Emscripten.clang"
  },
  "schemaVersion": "3.4.16",
  "updatedAt": "2024-02-18T16:56:14.661Z",
  "devdoc": {
    "kind": "dev",
    "methods": {},
    "version": 1
  },
  "userdoc": {
    "kind": "user",
    "methods": {},
    "version": 1
  }
}